{
    "_format": "hh-sol-artifact-1",
    "contractName": "PharmaNFT",
    "sourceName": "contracts/PharmaNFT.sol",
    "abi": [
        {
            "inputs": [
                {
                    "internalType": "address",
                    "name": "initialOwner",
                    "type": "address"
                }
            ],
            "stateMutability": "nonpayable",
            "type": "constructor"
        },
        {
            "inputs": [
                {
                    "internalType": "address",
                    "name": "sender",
                    "type": "address"
                },
                {
                    "internalType": "uint256",
                    "name": "tokenId",
                    "type": "uint256"
                },
                {
                    "internalType": "address",
                    "name": "owner",
                    "type": "address"
                }
            ],
            "name": "ERC721IncorrectOwner",
            "type": "error"
        },
        {
            "inputs": [
                {
                    "internalType": "address",
                    "name": "operator",
                    "type": "address"
                },
                {
                    "internalType": "uint256",
                    "name": "tokenId",
                    "type": "uint256"
                }
            ],
            "name": "ERC721InsufficientApproval",
            "type": "error"
        },
        {
            "inputs": [
                {
                    "internalType": "address",
                    "name": "approver",
                    "type": "address"
                }
            ],
            "name": "ERC721InvalidApprover",
            "type": "error"
        },
        {
            "inputs": [
                {
                    "internalType": "address",
                    "name": "operator",
                    "type": "address"
                }
            ],
            "name": "ERC721InvalidOperator",
            "type": "error"
        },
        {
            "inputs": [
                {
                    "internalType": "address",
                    "name": "owner",
                    "type": "address"
                }
            ],
            "name": "ERC721InvalidOwner",
            "type": "error"
        },
        {
            "inputs": [
                {
                    "internalType": "address",
                    "name": "receiver",
                    "type": "address"
                }
            ],
            "name": "ERC721InvalidReceiver",
            "type": "error"
        },
        {
            "inputs": [
                {
                    "internalType": "address",
                    "name": "sender",
                    "type": "address"
                }
            ],
            "name": "ERC721InvalidSender",
            "type": "error"
        },
        {
            "inputs": [
                {
                    "internalType": "uint256",
                    "name": "tokenId",
                    "type": "uint256"
                }
            ],
            "name": "ERC721NonexistentToken",
            "type": "error"
        },
        {
            "inputs": [
                {
                    "internalType": "address",
                    "name": "owner",
                    "type": "address"
                }
            ],
            "name": "OwnableInvalidOwner",
            "type": "error"
        },
        {
            "inputs": [
                {
                    "internalType": "address",
                    "name": "account",
                    "type": "address"
                }
            ],
            "name": "OwnableUnauthorizedAccount",
            "type": "error"
        },
        {
            "anonymous": false,
            "inputs": [
                {
                    "indexed": true,
                    "internalType": "address",
                    "name": "owner",
                    "type": "address"
                },
                {
                    "indexed": true,
                    "internalType": "address",
                    "name": "approved",
                    "type": "address"
                },
                {
                    "indexed": true,
                    "internalType": "uint256",
                    "name": "tokenId",
                    "type": "uint256"
                }
            ],
            "name": "Approval",
            "type": "event"
        },
        {
            "anonymous": false,
            "inputs": [
                {
                    "indexed": true,
                    "internalType": "address",
                    "name": "owner",
                    "type": "address"
                },
                {
                    "indexed": true,
                    "internalType": "address",
                    "name": "operator",
                    "type": "address"
                },
                {
                    "indexed": false,
                    "internalType": "bool",
                    "name": "approved",
                    "type": "bool"
                }
            ],
            "name": "ApprovalForAll",
            "type": "event"
        },
        {
            "anonymous": false,
            "inputs": [
                {
                    "indexed": false,
                    "internalType": "uint256",
                    "name": "_fromTokenId",
                    "type": "uint256"
                },
                {
                    "indexed": false,
                    "internalType": "uint256",
                    "name": "_toTokenId",
                    "type": "uint256"
                }
            ],
            "name": "BatchMetadataUpdate",
            "type": "event"
        },
        {
            "anonymous": false,
            "inputs": [
                {
                    "indexed": false,
                    "internalType": "uint256",
                    "name": "_tokenId",
                    "type": "uint256"
                }
            ],
            "name": "MetadataUpdate",
            "type": "event"
        },
        {
            "anonymous": false,
            "inputs": [
                {
                    "indexed": true,
                    "internalType": "address",
                    "name": "previousOwner",
                    "type": "address"
                },
                {
                    "indexed": true,
                    "internalType": "address",
                    "name": "newOwner",
                    "type": "address"
                }
            ],
            "name": "OwnershipTransferred",
            "type": "event"
        },
        {
            "anonymous": false,
            "inputs": [
                {
                    "indexed": true,
                    "internalType": "uint256",
                    "name": "tokenId",
                    "type": "uint256"
                },
                {
                    "indexed": true,
                    "internalType": "address",
                    "name": "manufacturer",
                    "type": "address"
                },
                {
                    "indexed": false,
                    "internalType": "string",
                    "name": "uri",
                    "type": "string"
                }
            ],
            "name": "ProductMinted",
            "type": "event"
        },
        {
            "anonymous": false,
            "inputs": [
                {
                    "indexed": true,
                    "internalType": "uint256",
                    "name": "tokenId",
                    "type": "uint256"
                },
                {
                    "indexed": true,
                    "internalType": "address",
                    "name": "from",
                    "type": "address"
                },
                {
                    "indexed": true,
                    "internalType": "address",
                    "name": "to",
                    "type": "address"
                }
            ],
            "name": "ProductTransferred",
            "type": "event"
        },
        {
            "anonymous": false,
            "inputs": [
                {
                    "indexed": true,
                    "internalType": "address",
                    "name": "user",
                    "type": "address"
                },
                {
                    "indexed": false,
                    "internalType": "enum PharmaNFT.Role",
                    "name": "role",
                    "type": "uint8"
                }
            ],
            "name": "RoleAssigned",
            "type": "event"
        },
        {
            "anonymous": false,
            "inputs": [
                {
                    "indexed": true,
                    "internalType": "address",
                    "name": "from",
                    "type": "address"
                },
                {
                    "indexed": true,
                    "internalType": "address",
                    "name": "to",
                    "type": "address"
                },
                {
                    "indexed": true,
                    "internalType": "uint256",
                    "name": "tokenId",
                    "type": "uint256"
                }
            ],
            "name": "Transfer",
            "type": "event"
        },
        {
            "inputs": [
                {
                    "internalType": "address",
                    "name": "to",
                    "type": "address"
                },
                {
                    "internalType": "uint256",
                    "name": "tokenId",
                    "type": "uint256"
                }
            ],
            "name": "approve",
            "outputs": [],
            "stateMutability": "nonpayable",
            "type": "function"
        },
        {
            "inputs": [
                {
                    "internalType": "address",
                    "name": "user",
                    "type": "address"
                },
                {
                    "internalType": "enum PharmaNFT.Role",
                    "name": "role",
                    "type": "uint8"
                }
            ],
            "name": "assignRole",
            "outputs": [],
            "stateMutability": "nonpayable",
            "type": "function"
        },
        {
            "inputs": [
                {
                    "internalType": "address",
                    "name": "owner",
                    "type": "address"
                }
            ],
            "name": "balanceOf",
            "outputs": [
                {
                    "internalType": "uint256",
                    "name": "",
                    "type": "uint256"
                }
            ],
            "stateMutability": "view",
            "type": "function"
        },
        {
            "inputs": [
                {
                    "internalType": "uint256",
                    "name": "tokenId",
                    "type": "uint256"
                }
            ],
            "name": "getApproved",
            "outputs": [
                {
                    "internalType": "address",
                    "name": "",
                    "type": "address"
                }
            ],
            "stateMutability": "view",
            "type": "function"
        },
        {
            "inputs": [
                {
                    "internalType": "uint256",
                    "name": "tokenId",
                    "type": "uint256"
                }
            ],
            "name": "getProductHistory",
            "outputs": [
                {
                    "internalType": "address[]",
                    "name": "",
                    "type": "address[]"
                }
            ],
            "stateMutability": "view",
            "type": "function"
        },
        {
            "inputs": [
                {
                    "internalType": "address",
                    "name": "owner",
                    "type": "address"
                },
                {
                    "internalType": "address",
                    "name": "operator",
                    "type": "address"
                }
            ],
            "name": "isApprovedForAll",
            "outputs": [
                {
                    "internalType": "bool",
                    "name": "",
                    "type": "bool"
                }
            ],
            "stateMutability": "view",
            "type": "function"
        },
        {
            "inputs": [
                {
                    "internalType": "string",
                    "name": "uri",
                    "type": "string"
                }
            ],
            "name": "mintProductNFT",
            "outputs": [
                {
                    "internalType": "uint256",
                    "name": "",
                    "type": "uint256"
                }
            ],
            "stateMutability": "nonpayable",
            "type": "function"
        },
        {
            "inputs": [],
            "name": "name",
            "outputs": [
                {
                    "internalType": "string",
                    "name": "",
                    "type": "string"
                }
            ],
            "stateMutability": "view",
            "type": "function"
        },
        {
            "inputs": [],
            "name": "nextTokenId",
            "outputs": [
                {
                    "internalType": "uint256",
                    "name": "",
                    "type": "uint256"
                }
            ],
            "stateMutability": "view",
            "type": "function"
        },
        {
            "inputs": [],
            "name": "owner",
            "outputs": [
                {
                    "internalType": "address",
                    "name": "",
                    "type": "address"
                }
            ],
            "stateMutability": "view",
            "type": "function"
        },
        {
            "inputs": [
                {
                    "internalType": "uint256",
                    "name": "tokenId",
                    "type": "uint256"
                }
            ],
            "name": "ownerOf",
            "outputs": [
                {
                    "internalType": "address",
                    "name": "",
                    "type": "address"
                }
            ],
            "stateMutability": "view",
            "type": "function"
        },
        {
            "inputs": [
                {
                    "internalType": "uint256",
                    "name": "",
                    "type": "uint256"
                },
                {
                    "internalType": "uint256",
                    "name": "",
                    "type": "uint256"
                }
            ],
            "name": "productHistory",
            "outputs": [
                {
                    "internalType": "address",
                    "name": "",
                    "type": "address"
                }
            ],
            "stateMutability": "view",
            "type": "function"
        },
        {
            "inputs": [],
            "name": "renounceOwnership",
            "outputs": [],
            "stateMutability": "nonpayable",
            "type": "function"
        },
        {
            "inputs": [
                {
                    "internalType": "address",
                    "name": "",
                    "type": "address"
                }
            ],
            "name": "roles",
            "outputs": [
                {
                    "internalType": "enum PharmaNFT.Role",
                    "name": "",
                    "type": "uint8"
                }
            ],
            "stateMutability": "view",
            "type": "function"
        },
        {
            "inputs": [
                {
                    "internalType": "address",
                    "name": "from",
                    "type": "address"
                },
                {
                    "internalType": "address",
                    "name": "to",
                    "type": "address"
                },
                {
                    "internalType": "uint256",
                    "name": "tokenId",
                    "type": "uint256"
                }
            ],
            "name": "safeTransferFrom",
            "outputs": [],
            "stateMutability": "nonpayable",
            "type": "function"
        },
        {
            "inputs": [
                {
                    "internalType": "address",
                    "name": "from",
                    "type": "address"
                },
                {
                    "internalType": "address",
                    "name": "to",
                    "type": "address"
                },
                {
                    "internalType": "uint256",
                    "name": "tokenId",
                    "type": "uint256"
                },
                {
                    "internalType": "bytes",
                    "name": "data",
                    "type": "bytes"
                }
            ],
            "name": "safeTransferFrom",
            "outputs": [],
            "stateMutability": "nonpayable",
            "type": "function"
        },
        {
            "inputs": [
                {
                    "internalType": "address",
                    "name": "operator",
                    "type": "address"
                },
                {
                    "internalType": "bool",
                    "name": "approved",
                    "type": "bool"
                }
            ],
            "name": "setApprovalForAll",
            "outputs": [],
            "stateMutability": "nonpayable",
            "type": "function"
        },
        {
            "inputs": [
                {
                    "internalType": "bytes4",
                    "name": "interfaceId",
                    "type": "bytes4"
                }
            ],
            "name": "supportsInterface",
            "outputs": [
                {
                    "internalType": "bool",
                    "name": "",
                    "type": "bool"
                }
            ],
            "stateMutability": "view",
            "type": "function"
        },
        {
            "inputs": [],
            "name": "symbol",
            "outputs": [
                {
                    "internalType": "string",
                    "name": "",
                    "type": "string"
                }
            ],
            "stateMutability": "view",
            "type": "function"
        },
        {
            "inputs": [
                {
                    "internalType": "uint256",
                    "name": "tokenId",
                    "type": "uint256"
                }
            ],
            "name": "tokenURI",
            "outputs": [
                {
                    "internalType": "string",
                    "name": "",
                    "type": "string"
                }
            ],
            "stateMutability": "view",
            "type": "function"
        },
        {
            "inputs": [
                {
                    "internalType": "address",
                    "name": "from",
                    "type": "address"
                },
                {
                    "internalType": "address",
                    "name": "to",
                    "type": "address"
                },
                {
                    "internalType": "uint256",
                    "name": "tokenId",
                    "type": "uint256"
                }
            ],
            "name": "transferFrom",
            "outputs": [],
            "stateMutability": "nonpayable",
            "type": "function"
        },
        {
            "inputs": [
                {
                    "internalType": "address",
                    "name": "newOwner",
                    "type": "address"
                }
            ],
            "name": "transferOwnership",
            "outputs": [],
            "stateMutability": "nonpayable",
            "type": "function"
        },
        {
            "inputs": [
                {
                    "internalType": "uint256",
                    "name": "tokenId",
                    "type": "uint256"
                },
                {
                    "internalType": "address",
                    "name": "to",
                    "type": "address"
                }
            ],
            "name": "transferProductNFT",
            "outputs": [],
            "stateMutability": "nonpayable",
            "type": "function"
        }
    ],
    "bytecode": "0x608060405234801561001057600080fd5b506040516137fd3803806137fd83398181016040528101906100329190610272565b806040518060400160405280600981526020017f506861726d614e465400000000000000000000000000000000000000000000008152506040518060400160405280600681526020017f504841524d41000000000000000000000000000000000000000000000000000081525081600090816100ae91906104ef565b5080600190816100be91906104ef565b505050600073ffffffffffffffffffffffffffffffffffffffff168173ffffffffffffffffffffffffffffffffffffffff16036101335760006040517f1e4fbdf700000000000000000000000000000000000000000000000000000000815260040161012a91906105d0565b60405180910390fd5b6101428161014960201b60201c565b50506105eb565b6000600760009054906101000a900473ffffffffffffffffffffffffffffffffffffffff16905081600760006101000a81548173ffffffffffffffffffffffffffffffffffffffff021916908373ffffffffffffffffffffffffffffffffffffffff1602179055508173ffffffffffffffffffffffffffffffffffffffff168173ffffffffffffffffffffffffffffffffffffffff167f8be0079c531659141344cd1fd0a4f28419497f9722a3daafe3b4186f6b6457e060405160405180910390a35050565b600080fd5b600073ffffffffffffffffffffffffffffffffffffffff82169050919050565b600061023f82610214565b9050919050565b61024f81610234565b811461025a57600080fd5b50565b60008151905061026c81610246565b92915050565b6000602082840312156102885761028761020f565b5b60006102968482850161025d565b91505092915050565b600081519050919050565b7f4e487b7100000000000000000000000000000000000000000000000000000000600052604160045260246000fd5b7f4e487b7100000000000000000000000000000000000000000000000000000000600052602260045260246000fd5b6000600282049050600182168061032057607f821691505b602082108103610333576103326102d9565b5b50919050565b60008190508160005260206000209050919050565b60006020601f8301049050919050565b600082821b905092915050565b60006008830261039b7fffffffffffffffffffffffffffffffffffffffffffffffffffffffffffffffff8261035e565b6103a5868361035e565b95508019841693508086168417925050509392505050565b6000819050919050565b6000819050919050565b60006103ec6103e76103e2846103bd565b6103c7565b6103bd565b9050919050565b6000819050919050565b610406836103d1565b61041a610412826103f3565b84845461036b565b825550505050565b600090565b61042f610422565b61043a8184846103fd565b505050565b5b8181101561045e57610453600082610427565b600181019050610440565b5050565b601f8211156104a35761047481610339565b61047d8461034e565b8101602085101561048c578190505b6104a06104988561034e565b83018261043f565b50505b505050565b600082821c905092915050565b60006104c6600019846008026104a8565b1980831691505092915050565b60006104df83836104b5565b9150826002028217905092915050565b6104f88261029f565b67ffffffffffffffff811115610511576105106102aa565b5b61051b8254610308565b610526828285610462565b600060209050601f8311600181146105595760008415610547578287015190505b61055185826104d3565b8655506105b9565b601f19841661056786610339565b60005b8281101561058f5784890151825560018201915060208501945060208101905061056a565b868310156105ac57848901516105a8601f8916826104b5565b8355505b6001600288020188555050505b505050505050565b6105ca81610234565b82525050565b60006020820190506105e560008301846105c1565b92915050565b613203806105fa6000396000f3fe608060405234801561001057600080fd5b506004361061014d5760003560e01c8063715018a6116100c3578063a22cb4651161007c578063a22cb465146103b0578063ae6b39b5146103cc578063b88d4fde146103fc578063c87b56dd14610418578063e985e9c514610448578063f2fde38b146104785761014d565b8063715018a61461030057806375794a3c1461030a5780638d9011bf146103285780638da5cb5b1461034457806395d89b411461036257806399374642146103805761014d565b80633a7d2376116101155780633a7d23761461020857806342842e0e1461023857806357a096a114610254578063630a195b146102845780636352211e146102a057806370a08231146102d05761014d565b806301ffc9a71461015257806306fdde0314610182578063081812fc146101a0578063095ea7b3146101d057806323b872dd146101ec575b600080fd5b61016c600480360381019061016791906122bf565b610494565b6040516101799190612307565b60405180910390f35b61018a6104f5565b60405161019791906123b2565b60405180910390f35b6101ba60048036038101906101b5919061240a565b610587565b6040516101c79190612478565b60405180910390f35b6101ea60048036038101906101e591906124bf565b6105a3565b005b610206600480360381019061020191906124ff565b6105b9565b005b610222600480360381019061021d9190612552565b6106bb565b60405161022f9190612478565b60405180910390f35b610252600480360381019061024d91906124ff565b610709565b005b61026e6004803603810190610269919061240a565b610729565b60405161027b9190612650565b60405180910390f35b61029e60048036038101906102999190612697565b6107ca565b005b6102ba60048036038101906102b5919061240a565b61088b565b6040516102c79190612478565b60405180910390f35b6102ea60048036038101906102e591906126d7565b61089d565b6040516102f79190612713565b60405180910390f35b610308610957565b005b61031261096b565b60405161031f9190612713565b60405180910390f35b610342600480360381019061033d919061272e565b610971565b005b61034c610b7a565b6040516103599190612478565b60405180910390f35b61036a610ba4565b60405161037791906123b2565b60405180910390f35b61039a600480360381019061039591906126d7565b610c36565b6040516103a791906127e5565b60405180910390f35b6103ca60048036038101906103c5919061282c565b610c56565b005b6103e660048036038101906103e191906128d1565b610c6c565b6040516103f39190612713565b60405180910390f35b61041660048036038101906104119190612a4e565b610e65565b005b610432600480360381019061042d919061240a565b610e8a565b60405161043f91906123b2565b60405180910390f35b610462600480360381019061045d9190612ad1565b610f9d565b60405161046f9190612307565b60405180910390f35b610492600480360381019061048d91906126d7565b611031565b005b6000634906490660e01b7bffffffffffffffffffffffffffffffffffffffffffffffffffffffff1916827bffffffffffffffffffffffffffffffffffffffffffffffffffffffff191614806104ee57506104ed826110b7565b5b9050919050565b60606000805461050490612b40565b80601f016020809104026020016040519081016040528092919081815260200182805461053090612b40565b801561057d5780601f106105525761010080835404028352916020019161057d565b820191906000526020600020905b81548152906001019060200180831161056057829003601f168201915b5050505050905090565b600061059282611199565b5061059c82611221565b9050919050565b6105b582826105b061125e565b611266565b5050565b600073ffffffffffffffffffffffffffffffffffffffff168273ffffffffffffffffffffffffffffffffffffffff160361062b5760006040517f64a0ae920000000000000000000000000000000000000000000000000000000081526004016106229190612478565b60405180910390fd5b600061063f838361063a61125e565b611278565b90508373ffffffffffffffffffffffffffffffffffffffff168173ffffffffffffffffffffffffffffffffffffffff16146106b5578382826040517f64283d7b0000000000000000000000000000000000000000000000000000000081526004016106ac93929190612b71565b60405180910390fd5b50505050565b600960205281600052604060002081815481106106d757600080fd5b906000526020600020016000915091509054906101000a900473ffffffffffffffffffffffffffffffffffffffff1681565b61072483838360405180602001604052806000815250610e65565b505050565b6060600960008381526020019081526020016000208054806020026020016040519081016040528092919081815260200182805480156107be57602002820191906000526020600020905b8160009054906101000a900473ffffffffffffffffffffffffffffffffffffffff1673ffffffffffffffffffffffffffffffffffffffff1681526020019060010190808311610774575b50505050509050919050565b6107d2611492565b80600860008473ffffffffffffffffffffffffffffffffffffffff1673ffffffffffffffffffffffffffffffffffffffff16815260200190815260200160002060006101000a81548160ff021916908360048111156108345761083361276e565b5b02179055508173ffffffffffffffffffffffffffffffffffffffff167f4ac36fa53f167ceb85964be512e01de2a3b8bdb9862f917da079deeeff689b388260405161087f91906127e5565b60405180910390a25050565b600061089682611199565b9050919050565b60008073ffffffffffffffffffffffffffffffffffffffff168273ffffffffffffffffffffffffffffffffffffffff16036109105760006040517f89c62b640000000000000000000000000000000000000000000000000000000081526004016109079190612478565b60405180910390fd5b600360008373ffffffffffffffffffffffffffffffffffffffff1673ffffffffffffffffffffffffffffffffffffffff168152602001908152602001600020549050919050565b61095f611492565b6109696000611519565b565b600a5481565b813373ffffffffffffffffffffffffffffffffffffffff166109928261088b565b73ffffffffffffffffffffffffffffffffffffffff16146109e8576040517f08c379a00000000000000000000000000000000000000000000000000000000081526004016109df90612bf4565b60405180910390fd5b600060048111156109fc576109fb61276e565b5b600860008473ffffffffffffffffffffffffffffffffffffffff1673ffffffffffffffffffffffffffffffffffffffff16815260200190815260200160002060009054906101000a900460ff166004811115610a5b57610a5a61276e565b5b03610a9b576040517f08c379a0000000000000000000000000000000000000000000000000000000008152600401610a9290612c60565b60405180910390fd5b610aa63383856115df565b60096000848152602001908152602001600020829080600181540180825580915050600190039060005260206000200160009091909190916101000a81548173ffffffffffffffffffffffffffffffffffffffff021916908373ffffffffffffffffffffffffffffffffffffffff1602179055508173ffffffffffffffffffffffffffffffffffffffff163373ffffffffffffffffffffffffffffffffffffffff16847fcef86d37ba3dc1d682967cde44d8050488734bf53166725b220b4d2e515e9e9360405160405180910390a4505050565b6000600760009054906101000a900473ffffffffffffffffffffffffffffffffffffffff16905090565b606060018054610bb390612b40565b80601f0160208091040260200160405190810160405280929190818152602001828054610bdf90612b40565b8015610c2c5780601f10610c0157610100808354040283529160200191610c2c565b820191906000526020600020905b815481529060010190602001808311610c0f57829003601f168201915b5050505050905090565b60086020528060005260406000206000915054906101000a900460ff1681565b610c68610c6161125e565b838361174c565b5050565b60006001806004811115610c8357610c8261276e565b5b600860003373ffffffffffffffffffffffffffffffffffffffff1673ffffffffffffffffffffffffffffffffffffffff16815260200190815260200160002060009054906101000a900460ff166004811115610ce257610ce161276e565b5b14610d22576040517f08c379a0000000000000000000000000000000000000000000000000000000008152600401610d1990612ccc565b60405180910390fd5b6000600a6000815480929190610d3790612d1b565b919050559050610d4733826118bb565b610d958186868080601f016020809104026020016040519081016040528093929190818152602001838380828437600081840152601f19601f820116905080830192505050505050506119b4565b60096000828152602001908152602001600020339080600181540180825580915050600190039060005260206000200160009091909190916101000a81548173ffffffffffffffffffffffffffffffffffffffff021916908373ffffffffffffffffffffffffffffffffffffffff1602179055503373ffffffffffffffffffffffffffffffffffffffff16817fa77532f709cda752aef1f34d0041c486e2760e3798d55aaafc4f559ef32af5468787604051610e52929190612d90565b60405180910390a3809250505092915050565b610e708484846105b9565b610e84610e7b61125e565b85858585611a10565b50505050565b6060610e9582611199565b506000600660008481526020019081526020016000208054610eb690612b40565b80601f0160208091040260200160405190810160405280929190818152602001828054610ee290612b40565b8015610f2f5780601f10610f0457610100808354040283529160200191610f2f565b820191906000526020600020905b815481529060010190602001808311610f1257829003601f168201915b505050505090506000610f40611bc1565b90506000815103610f55578192505050610f98565b600082511115610f8a578082604051602001610f72929190612df0565b60405160208183030381529060405292505050610f98565b610f9384611bd8565b925050505b919050565b6000600560008473ffffffffffffffffffffffffffffffffffffffff1673ffffffffffffffffffffffffffffffffffffffff16815260200190815260200160002060008373ffffffffffffffffffffffffffffffffffffffff1673ffffffffffffffffffffffffffffffffffffffff16815260200190815260200160002060009054906101000a900460ff16905092915050565b611039611492565b600073ffffffffffffffffffffffffffffffffffffffff168173ffffffffffffffffffffffffffffffffffffffff16036110ab5760006040517f1e4fbdf70000000000000000000000000000000000000000000000000000000081526004016110a29190612478565b60405180910390fd5b6110b481611519565b50565b60007f80ac58cd000000000000000000000000000000000000000000000000000000007bffffffffffffffffffffffffffffffffffffffffffffffffffffffff1916827bffffffffffffffffffffffffffffffffffffffffffffffffffffffff1916148061118257507f5b5e139f000000000000000000000000000000000000000000000000000000007bffffffffffffffffffffffffffffffffffffffffffffffffffffffff1916827bffffffffffffffffffffffffffffffffffffffffffffffffffffffff1916145b80611192575061119182611c41565b5b9050919050565b6000806111a583611cab565b9050600073ffffffffffffffffffffffffffffffffffffffff168173ffffffffffffffffffffffffffffffffffffffff160361121857826040517f7e27328900000000000000000000000000000000000000000000000000000000815260040161120f9190612713565b60405180910390fd5b80915050919050565b60006004600083815260200190815260200160002060009054906101000a900473ffffffffffffffffffffffffffffffffffffffff169050919050565b600033905090565b6112738383836001611ce8565b505050565b60008061128484611cab565b9050600073ffffffffffffffffffffffffffffffffffffffff168373ffffffffffffffffffffffffffffffffffffffff16146112c6576112c5818486611ead565b5b600073ffffffffffffffffffffffffffffffffffffffff168173ffffffffffffffffffffffffffffffffffffffff161461135757611308600085600080611ce8565b6001600360008373ffffffffffffffffffffffffffffffffffffffff1673ffffffffffffffffffffffffffffffffffffffff168152602001908152602001600020600082825403925050819055505b600073ffffffffffffffffffffffffffffffffffffffff168573ffffffffffffffffffffffffffffffffffffffff16146113da576001600360008773ffffffffffffffffffffffffffffffffffffffff1673ffffffffffffffffffffffffffffffffffffffff168152602001908152602001600020600082825401925050819055505b846002600086815260200190815260200160002060006101000a81548173ffffffffffffffffffffffffffffffffffffffff021916908373ffffffffffffffffffffffffffffffffffffffff160217905550838573ffffffffffffffffffffffffffffffffffffffff168273ffffffffffffffffffffffffffffffffffffffff167fddf252ad1be2c89b69c2b068fc378daa952ba7f163c4a11628f55a4df523b3ef60405160405180910390a4809150509392505050565b61149a61125e565b73ffffffffffffffffffffffffffffffffffffffff166114b8610b7a565b73ffffffffffffffffffffffffffffffffffffffff1614611517576114db61125e565b6040517f118cdaa700000000000000000000000000000000000000000000000000000000815260040161150e9190612478565b60405180910390fd5b565b6000600760009054906101000a900473ffffffffffffffffffffffffffffffffffffffff16905081600760006101000a81548173ffffffffffffffffffffffffffffffffffffffff021916908373ffffffffffffffffffffffffffffffffffffffff1602179055508173ffffffffffffffffffffffffffffffffffffffff168173ffffffffffffffffffffffffffffffffffffffff167f8be0079c531659141344cd1fd0a4f28419497f9722a3daafe3b4186f6b6457e060405160405180910390a35050565b600073ffffffffffffffffffffffffffffffffffffffff168273ffffffffffffffffffffffffffffffffffffffff16036116515760006040517f64a0ae920000000000000000000000000000000000000000000000000000000081526004016116489190612478565b60405180910390fd5b600061165f83836000611278565b9050600073ffffffffffffffffffffffffffffffffffffffff168173ffffffffffffffffffffffffffffffffffffffff16036116d257816040517f7e2732890000000000000000000000000000000000000000000000000000000081526004016116c99190612713565b60405180910390fd5b8373ffffffffffffffffffffffffffffffffffffffff168173ffffffffffffffffffffffffffffffffffffffff1614611746578382826040517f64283d7b00000000000000000000000000000000000000000000000000000000815260040161173d93929190612b71565b60405180910390fd5b50505050565b600073ffffffffffffffffffffffffffffffffffffffff168273ffffffffffffffffffffffffffffffffffffffff16036117bd57816040517f5b08ba180000000000000000000000000000000000000000000000000000000081526004016117b49190612478565b60405180910390fd5b80600560008573ffffffffffffffffffffffffffffffffffffffff1673ffffffffffffffffffffffffffffffffffffffff16815260200190815260200160002060008473ffffffffffffffffffffffffffffffffffffffff1673ffffffffffffffffffffffffffffffffffffffff16815260200190815260200160002060006101000a81548160ff0219169083151502179055508173ffffffffffffffffffffffffffffffffffffffff168373ffffffffffffffffffffffffffffffffffffffff167f17307eab39ab6107e8899845ad3d59bd9653f200f220920489ca2b5937696c31836040516118ae9190612307565b60405180910390a3505050565b600073ffffffffffffffffffffffffffffffffffffffff168273ffffffffffffffffffffffffffffffffffffffff160361192d5760006040517f64a0ae920000000000000000000000000000000000000000000000000000000081526004016119249190612478565b60405180910390fd5b600061193b83836000611278565b9050600073ffffffffffffffffffffffffffffffffffffffff168173ffffffffffffffffffffffffffffffffffffffff16146119af5760006040517f73c6ac6e0000000000000000000000000000000000000000000000000000000081526004016119a69190612478565b60405180910390fd5b505050565b806006600084815260200190815260200160002090816119d49190612fc0565b507ff8e1a15aba9398e019f0b49df1a4fde98ee17ae345cb5f6b5e2c27f5033e8ce782604051611a049190612713565b60405180910390a15050565b60008373ffffffffffffffffffffffffffffffffffffffff163b1115611bba578273ffffffffffffffffffffffffffffffffffffffff1663150b7a02868685856040518563ffffffff1660e01b8152600401611a6f94939291906130e7565b6020604051808303816000875af1925050508015611aab57506040513d601f19601f82011682018060405250810190611aa89190613148565b60015b611b2f573d8060008114611adb576040519150601f19603f3d011682016040523d82523d6000602084013e611ae0565b606091505b506000815103611b2757836040517f64a0ae92000000000000000000000000000000000000000000000000000000008152600401611b1e9190612478565b60405180910390fd5b805160208201fd5b63150b7a0260e01b7bffffffffffffffffffffffffffffffffffffffffffffffffffffffff1916817bffffffffffffffffffffffffffffffffffffffffffffffffffffffff191614611bb857836040517f64a0ae92000000000000000000000000000000000000000000000000000000008152600401611baf9190612478565b60405180910390fd5b505b5050505050565b606060405180602001604052806000815250905090565b6060611be382611199565b506000611bee611bc1565b90506000815111611c0e5760405180602001604052806000815250611c39565b80611c1884611f71565b604051602001611c29929190612df0565b6040516020818303038152906040525b915050919050565b60007f01ffc9a7000000000000000000000000000000000000000000000000000000007bffffffffffffffffffffffffffffffffffffffffffffffffffffffff1916827bffffffffffffffffffffffffffffffffffffffffffffffffffffffff1916149050919050565b60006002600083815260200190815260200160002060009054906101000a900473ffffffffffffffffffffffffffffffffffffffff169050919050565b8080611d215750600073ffffffffffffffffffffffffffffffffffffffff168273ffffffffffffffffffffffffffffffffffffffff1614155b15611e55576000611d3184611199565b9050600073ffffffffffffffffffffffffffffffffffffffff168373ffffffffffffffffffffffffffffffffffffffff1614158015611d9c57508273ffffffffffffffffffffffffffffffffffffffff168173ffffffffffffffffffffffffffffffffffffffff1614155b8015611daf5750611dad8184610f9d565b155b15611df157826040517fa9fbf51f000000000000000000000000000000000000000000000000000000008152600401611de89190612478565b60405180910390fd5b8115611e5357838573ffffffffffffffffffffffffffffffffffffffff168273ffffffffffffffffffffffffffffffffffffffff167f8c5be1e5ebec7d5bd14f71427d1e84f3dd0314c0f7b2291e5b200ac8c7c3b92560405160405180910390a45b505b836004600085815260200190815260200160002060006101000a81548173ffffffffffffffffffffffffffffffffffffffff021916908373ffffffffffffffffffffffffffffffffffffffff16021790555050505050565b611eb883838361203f565b611f6c57600073ffffffffffffffffffffffffffffffffffffffff168373ffffffffffffffffffffffffffffffffffffffff1603611f2d57806040517f7e273289000000000000000000000000000000000000000000000000000000008152600401611f249190612713565b60405180910390fd5b81816040517f177e802f000000000000000000000000000000000000000000000000000000008152600401611f63929190613175565b60405180910390fd5b505050565b606060006001611f8084612100565b01905060008167ffffffffffffffff811115611f9f57611f9e612923565b5b6040519080825280601f01601f191660200182016040528015611fd15781602001600182028036833780820191505090505b509050600082602083010190505b600115612034578080600190039150507f3031323334353637383961626364656600000000000000000000000000000000600a86061a8153600a85816120285761202761319e565b5b04945060008503611fdf575b819350505050919050565b60008073ffffffffffffffffffffffffffffffffffffffff168373ffffffffffffffffffffffffffffffffffffffff16141580156120f757508273ffffffffffffffffffffffffffffffffffffffff168473ffffffffffffffffffffffffffffffffffffffff1614806120b857506120b78484610f9d565b5b806120f657508273ffffffffffffffffffffffffffffffffffffffff166120de83611221565b73ffffffffffffffffffffffffffffffffffffffff16145b5b90509392505050565b600080600090507a184f03e93ff9f4daa797ed6e38ed64bf6a1f010000000000000000831061215e577a184f03e93ff9f4daa797ed6e38ed64bf6a1f01000000000000000083816121545761215361319e565b5b0492506040810190505b6d04ee2d6d415b85acef8100000000831061219b576d04ee2d6d415b85acef810000000083816121915761219061319e565b5b0492506020810190505b662386f26fc1000083106121ca57662386f26fc1000083816121c0576121bf61319e565b5b0492506010810190505b6305f5e10083106121f3576305f5e10083816121e9576121e861319e565b5b0492506008810190505b612710831061221857612710838161220e5761220d61319e565b5b0492506004810190505b6064831061223b57606483816122315761223061319e565b5b0492506002810190505b600a831061224a576001810190505b80915050919050565b6000604051905090565b600080fd5b600080fd5b60007fffffffff0000000000000000000000000000000000000000000000000000000082169050919050565b61229c81612267565b81146122a757600080fd5b50565b6000813590506122b981612293565b92915050565b6000602082840312156122d5576122d461225d565b5b60006122e3848285016122aa565b91505092915050565b60008115159050919050565b612301816122ec565b82525050565b600060208201905061231c60008301846122f8565b92915050565b600081519050919050565b600082825260208201905092915050565b60005b8381101561235c578082015181840152602081019050612341565b60008484015250505050565b6000601f19601f8301169050919050565b600061238482612322565b61238e818561232d565b935061239e81856020860161233e565b6123a781612368565b840191505092915050565b600060208201905081810360008301526123cc8184612379565b905092915050565b6000819050919050565b6123e7816123d4565b81146123f257600080fd5b50565b600081359050612404816123de565b92915050565b6000602082840312156124205761241f61225d565b5b600061242e848285016123f5565b91505092915050565b600073ffffffffffffffffffffffffffffffffffffffff82169050919050565b600061246282612437565b9050919050565b61247281612457565b82525050565b600060208201905061248d6000830184612469565b92915050565b61249c81612457565b81146124a757600080fd5b50565b6000813590506124b981612493565b92915050565b600080604083850312156124d6576124d561225d565b5b60006124e4858286016124aa565b92505060206124f5858286016123f5565b9150509250929050565b6000806000606084860312156125185761251761225d565b5b6000612526868287016124aa565b9350506020612537868287016124aa565b9250506040612548868287016123f5565b9150509250925092565b600080604083850312156125695761256861225d565b5b6000612577858286016123f5565b9250506020612588858286016123f5565b9150509250929050565b600081519050919050565b600082825260208201905092915050565b6000819050602082019050919050565b6125c781612457565b82525050565b60006125d983836125be565b60208301905092915050565b6000602082019050919050565b60006125fd82612592565b612607818561259d565b9350612612836125ae565b8060005b8381101561264357815161262a88826125cd565b9750612635836125e5565b925050600181019050612616565b5085935050505092915050565b6000602082019050818103600083015261266a81846125f2565b905092915050565b6005811061267f57600080fd5b50565b60008135905061269181612672565b92915050565b600080604083850312156126ae576126ad61225d565b5b60006126bc858286016124aa565b92505060206126cd85828601612682565b9150509250929050565b6000602082840312156126ed576126ec61225d565b5b60006126fb848285016124aa565b91505092915050565b61270d816123d4565b82525050565b60006020820190506127286000830184612704565b92915050565b600080604083850312156127455761274461225d565b5b6000612753858286016123f5565b9250506020612764858286016124aa565b9150509250929050565b7f4e487b7100000000000000000000000000000000000000000000000000000000600052602160045260246000fd5b600581106127ae576127ad61276e565b5b50565b60008190506127bf8261279d565b919050565b60006127cf826127b1565b9050919050565b6127df816127c4565b82525050565b60006020820190506127fa60008301846127d6565b92915050565b612809816122ec565b811461281457600080fd5b50565b60008135905061282681612800565b92915050565b600080604083850312156128435761284261225d565b5b6000612851858286016124aa565b925050602061286285828601612817565b9150509250929050565b600080fd5b600080fd5b600080fd5b60008083601f8401126128915761289061286c565b5b8235905067ffffffffffffffff8111156128ae576128ad612871565b5b6020830191508360018202830111156128ca576128c9612876565b5b9250929050565b600080602083850312156128e8576128e761225d565b5b600083013567ffffffffffffffff81111561290657612905612262565b5b6129128582860161287b565b92509250509250929050565b600080fd5b7f4e487b7100000000000000000000000000000000000000000000000000000000600052604160045260246000fd5b61295b82612368565b810181811067ffffffffffffffff8211171561297a57612979612923565b5b80604052505050565b600061298d612253565b90506129998282612952565b919050565b600067ffffffffffffffff8211156129b9576129b8612923565b5b6129c282612368565b9050602081019050919050565b82818337600083830152505050565b60006129f16129ec8461299e565b612983565b905082815260208101848484011115612a0d57612a0c61291e565b5b612a188482856129cf565b509392505050565b600082601f830112612a3557612a3461286c565b5b8135612a458482602086016129de565b91505092915050565b60008060008060808587031215612a6857612a6761225d565b5b6000612a76878288016124aa565b9450506020612a87878288016124aa565b9350506040612a98878288016123f5565b925050606085013567ffffffffffffffff811115612ab957612ab8612262565b5b612ac587828801612a20565b91505092959194509250565b60008060408385031215612ae857612ae761225d565b5b6000612af6858286016124aa565b9250506020612b07858286016124aa565b9150509250929050565b7f4e487b7100000000000000000000000000000000000000000000000000000000600052602260045260246000fd5b60006002820490506001821680612b5857607f821691505b602082108103612b6b57612b6a612b11565b5b50919050565b6000606082019050612b866000830186612469565b612b936020830185612704565b612ba06040830184612469565b949350505050565b7f4e6f7420746f6b656e206f776e65720000000000000000000000000000000000600082015250565b6000612bde600f8361232d565b9150612be982612ba8565b602082019050919050565b60006020820190508181036000830152612c0d81612bd1565b9050919050565b7f526563697069656e74206d7573742068617665206120726f6c65000000000000600082015250565b6000612c4a601a8361232d565b9150612c5582612c14565b602082019050919050565b60006020820190508181036000830152612c7981612c3d565b9050919050565b7f496e76616c696420726f6c650000000000000000000000000000000000000000600082015250565b6000612cb6600c8361232d565b9150612cc182612c80565b602082019050919050565b60006020820190508181036000830152612ce581612ca9565b9050919050565b7f4e487b7100000000000000000000000000000000000000000000000000000000600052601160045260246000fd5b6000612d26826123d4565b91507fffffffffffffffffffffffffffffffffffffffffffffffffffffffffffffffff8203612d5857612d57612cec565b5b600182019050919050565b6000612d6f838561232d565b9350612d7c8385846129cf565b612d8583612368565b840190509392505050565b60006020820190508181036000830152612dab818486612d63565b90509392505050565b600081905092915050565b6000612dca82612322565b612dd48185612db4565b9350612de481856020860161233e565b80840191505092915050565b6000612dfc8285612dbf565b9150612e088284612dbf565b91508190509392505050565b60008190508160005260206000209050919050565b60006020601f8301049050919050565b600082821b905092915050565b600060088302612e767fffffffffffffffffffffffffffffffffffffffffffffffffffffffffffffffff82612e39565b612e808683612e39565b95508019841693508086168417925050509392505050565b6000819050919050565b6000612ebd612eb8612eb3846123d4565b612e98565b6123d4565b9050919050565b6000819050919050565b612ed783612ea2565b612eeb612ee382612ec4565b848454612e46565b825550505050565b600090565b612f00612ef3565b612f0b818484612ece565b505050565b5b81811015612f2f57612f24600082612ef8565b600181019050612f11565b5050565b601f821115612f7457612f4581612e14565b612f4e84612e29565b81016020851015612f5d578190505b612f71612f6985612e29565b830182612f10565b50505b505050565b600082821c905092915050565b6000612f9760001984600802612f79565b1980831691505092915050565b6000612fb08383612f86565b9150826002028217905092915050565b612fc982612322565b67ffffffffffffffff811115612fe257612fe1612923565b5b612fec8254612b40565b612ff7828285612f33565b600060209050601f83116001811461302a5760008415613018578287015190505b6130228582612fa4565b86555061308a565b601f19841661303886612e14565b60005b828110156130605784890151825560018201915060208501945060208101905061303b565b8683101561307d5784890151613079601f891682612f86565b8355505b6001600288020188555050505b505050505050565b600081519050919050565b600082825260208201905092915050565b60006130b982613092565b6130c3818561309d565b93506130d381856020860161233e565b6130dc81612368565b840191505092915050565b60006080820190506130fc6000830187612469565b6131096020830186612469565b6131166040830185612704565b818103606083015261312881846130ae565b905095945050505050565b60008151905061314281612293565b92915050565b60006020828403121561315e5761315d61225d565b5b600061316c84828501613133565b91505092915050565b600060408201905061318a6000830185612469565b6131976020830184612704565b9392505050565b7f4e487b7100000000000000000000000000000000000000000000000000000000600052601260045260246000fdfea2646970667358221220efa588038ac4a6ca5dcaa21e152d2b0a187c5c5fb587df4b49e2daaa4071caf564736f6c634300081c0033",
    "linkReferences": {},
    "deployedLinkReferences": {}
}